{
  "contractName": "Betting",
  "abi": [
    {
      "inputs": [],
      "stateMutability": "nonpayable",
      "type": "constructor"
    },
    {
      "anonymous": false,
      "inputs": [
        {
          "indexed": true,
          "internalType": "address",
          "name": "player",
          "type": "address"
        },
        {
          "indexed": false,
          "internalType": "uint256",
          "name": "amount",
          "type": "uint256"
        },
        {
          "indexed": false,
          "internalType": "uint256",
          "name": "odds",
          "type": "uint256"
        }
      ],
      "name": "BetPlaced",
      "type": "event"
    },
    {
      "anonymous": false,
      "inputs": [
        {
          "indexed": false,
          "internalType": "string",
          "name": "message",
          "type": "string"
        }
      ],
      "name": "ErrorLog",
      "type": "event"
    },
    {
      "anonymous": false,
      "inputs": [
        {
          "indexed": false,
          "internalType": "uint256",
          "name": "amount",
          "type": "uint256"
        }
      ],
      "name": "Funded",
      "type": "event"
    },
    {
      "anonymous": false,
      "inputs": [
        {
          "indexed": true,
          "internalType": "address",
          "name": "player",
          "type": "address"
        },
        {
          "indexed": false,
          "internalType": "uint256",
          "name": "payout",
          "type": "uint256"
        }
      ],
      "name": "PayoutSuccess",
      "type": "event"
    },
    {
      "inputs": [],
      "name": "bank",
      "outputs": [
        {
          "internalType": "address payable",
          "name": "",
          "type": "address"
        }
      ],
      "stateMutability": "view",
      "type": "function",
      "constant": true
    },
    {
      "inputs": [],
      "name": "betAmount",
      "outputs": [
        {
          "internalType": "uint256",
          "name": "",
          "type": "uint256"
        }
      ],
      "stateMutability": "view",
      "type": "function",
      "constant": true
    },
    {
      "inputs": [],
      "name": "odds",
      "outputs": [
        {
          "internalType": "uint256",
          "name": "",
          "type": "uint256"
        }
      ],
      "stateMutability": "view",
      "type": "function",
      "constant": true
    },
    {
      "inputs": [],
      "name": "player",
      "outputs": [
        {
          "internalType": "address payable",
          "name": "",
          "type": "address"
        }
      ],
      "stateMutability": "view",
      "type": "function",
      "constant": true
    },
    {
      "inputs": [
        {
          "internalType": "uint256",
          "name": "_odds",
          "type": "uint256"
        }
      ],
      "name": "placeBet",
      "outputs": [],
      "stateMutability": "payable",
      "type": "function",
      "payable": true
    },
    {
      "inputs": [],
      "name": "win",
      "outputs": [],
      "stateMutability": "nonpayable",
      "type": "function"
    },
    {
      "inputs": [],
      "name": "fundContract",
      "outputs": [],
      "stateMutability": "payable",
      "type": "function",
      "payable": true
    },
    {
      "inputs": [
        {
          "internalType": "uint256",
          "name": "amount",
          "type": "uint256"
        }
      ],
      "name": "withdrawContract",
      "outputs": [],
      "stateMutability": "nonpayable",
      "type": "function"
    },
    {
      "inputs": [],
      "name": "getContractBalance",
      "outputs": [
        {
          "internalType": "uint256",
          "name": "",
          "type": "uint256"
        }
      ],
      "stateMutability": "view",
      "type": "function",
      "constant": true
    }
  ],
  "bytecode": "0x608060405234801561001057600080fd5b50336000806101000a81548173ffffffffffffffffffffffffffffffffffffffff021916908373ffffffffffffffffffffffffffffffffffffffff160217905550610ebb806100606000396000f3fe6080604052600436106100865760003560e01c80636f9fb98a116100595780636f9fb98a1461011457806376cdb03b1461013f57806398a844b91461016a578063bd097e2114610193578063d24257c01461019d57610086565b806310fe7c481461008b578063233de126146100a7578063473ca96c146100d257806348db5f89146100e9575b600080fd5b6100a560048036038101906100a091906108dd565b6101c8565b005b3480156100b357600080fd5b506100bc6102d2565b6040516100c99190610919565b60405180910390f35b3480156100de57600080fd5b506100e76102d8565b005b3480156100f557600080fd5b506100fe610515565b60405161010b9190610975565b60405180910390f35b34801561012057600080fd5b5061012961053b565b6040516101369190610919565b60405180910390f35b34801561014b57600080fd5b50610154610543565b6040516101619190610975565b60405180910390f35b34801561017657600080fd5b50610191600480360381019061018c91906108dd565b610567565b005b61019b61073e565b005b3480156101a957600080fd5b506101b2610848565b6040516101bf9190610919565b60405180910390f35b6000341161020b576040517f08c379a000000000000000000000000000000000000000000000000000000000815260040161020290610a13565b60405180910390fd5b33600160006101000a81548173ffffffffffffffffffffffffffffffffffffffff021916908373ffffffffffffffffffffffffffffffffffffffff1602179055503460028190555080600381905550600160009054906101000a900473ffffffffffffffffffffffffffffffffffffffff1673ffffffffffffffffffffffffffffffffffffffff167e1ecf1d0c4d22f324b3ecb9cdf0e5f772bc74ac104e6626f4b3845433d031056002546003546040516102c7929190610a33565b60405180910390a250565b60035481565b600160009054906101000a900473ffffffffffffffffffffffffffffffffffffffff1673ffffffffffffffffffffffffffffffffffffffff163373ffffffffffffffffffffffffffffffffffffffff1614610368576040517f08c379a000000000000000000000000000000000000000000000000000000000815260040161035f90610ace565b60405180910390fd5b6000606460035460025461037c9190610b1d565b6103869190610ba6565b9050804710156103cb576040517f08c379a00000000000000000000000000000000000000000000000000000000081526004016103c290610c23565b60405180910390fd5b6000600160009054906101000a900473ffffffffffffffffffffffffffffffffffffffff1673ffffffffffffffffffffffffffffffffffffffff168260405161041390610c74565b60006040518083038185875af1925050503d8060008114610450576040519150601f19603f3d011682016040523d82523d6000602084013e610455565b606091505b5050905080610499576040517f08c379a000000000000000000000000000000000000000000000000000000000815260040161049090610cd5565b60405180910390fd5b600160009054906101000a900473ffffffffffffffffffffffffffffffffffffffff1673ffffffffffffffffffffffffffffffffffffffff167f2a44162a2d5223e37cacacc3f626dcfee1396e0be3616534c5c7b718f786b673836040516105019190610919565b60405180910390a261051161084e565b5050565b600160009054906101000a900473ffffffffffffffffffffffffffffffffffffffff1681565b600047905090565b60008054906101000a900473ffffffffffffffffffffffffffffffffffffffff1681565b60008054906101000a900473ffffffffffffffffffffffffffffffffffffffff1673ffffffffffffffffffffffffffffffffffffffff163373ffffffffffffffffffffffffffffffffffffffff16146105f5576040517f08c379a00000000000000000000000000000000000000000000000000000000081526004016105ec90610d67565b60405180910390fd5b47811115610638576040517f08c379a000000000000000000000000000000000000000000000000000000000815260040161062f90610c23565b60405180910390fd5b60008060009054906101000a900473ffffffffffffffffffffffffffffffffffffffff1673ffffffffffffffffffffffffffffffffffffffff168260405161067f90610c74565b60006040518083038185875af1925050503d80600081146106bc576040519150601f19603f3d011682016040523d82523d6000602084013e6106c1565b606091505b5050905080610705576040517f08c379a00000000000000000000000000000000000000000000000000000000081526004016106fc90610cd5565b60405180910390fd5b7ffe46ad7cf507184ab42d7a2576647d779ff7bc7f831bfbead75fbe056c1adb6360405161073290610dd3565b60405180910390a15050565b60008054906101000a900473ffffffffffffffffffffffffffffffffffffffff1673ffffffffffffffffffffffffffffffffffffffff163373ffffffffffffffffffffffffffffffffffffffff16146107cc576040517f08c379a00000000000000000000000000000000000000000000000000000000081526004016107c390610d67565b60405180910390fd5b6000341161080f576040517f08c379a000000000000000000000000000000000000000000000000000000000815260040161080690610e65565b60405180910390fd5b7fc4c14883ae9fd8e26d5d59e3485ed29fd126d781d7e498a4ca5c54c8268e49363460405161083e9190610919565b60405180910390a1565b60025481565b600060028190555060006003819055506000600160006101000a81548173ffffffffffffffffffffffffffffffffffffffff021916908373ffffffffffffffffffffffffffffffffffffffff160217905550565b600080fd5b6000819050919050565b6108ba816108a7565b81146108c557600080fd5b50565b6000813590506108d7816108b1565b92915050565b6000602082840312156108f3576108f26108a2565b5b6000610901848285016108c8565b91505092915050565b610913816108a7565b82525050565b600060208201905061092e600083018461090a565b92915050565b600073ffffffffffffffffffffffffffffffffffffffff82169050919050565b600061095f82610934565b9050919050565b61096f81610954565b82525050565b600060208201905061098a6000830184610966565b92915050565b600082825260208201905092915050565b7f42657420616d6f756e74206d7573742062652067726561746572207468616e2060008201527f7a65726f00000000000000000000000000000000000000000000000000000000602082015250565b60006109fd602483610990565b9150610a08826109a1565b604082019050919050565b60006020820190508181036000830152610a2c816109f0565b9050919050565b6000604082019050610a48600083018561090a565b610a55602083018461090a565b9392505050565b7f4f6e6c792074686520706c617965722063616e2063616c6c207468697320667560008201527f6e6374696f6e0000000000000000000000000000000000000000000000000000602082015250565b6000610ab8602683610990565b9150610ac382610a5c565b604082019050919050565b60006020820190508181036000830152610ae781610aab565b9050919050565b7f4e487b7100000000000000000000000000000000000000000000000000000000600052601160045260246000fd5b6000610b28826108a7565b9150610b33836108a7565b9250817fffffffffffffffffffffffffffffffffffffffffffffffffffffffffffffffff0483118215151615610b6c57610b6b610aee565b5b828202905092915050565b7f4e487b7100000000000000000000000000000000000000000000000000000000600052601260045260246000fd5b6000610bb1826108a7565b9150610bbc836108a7565b925082610bcc57610bcb610b77565b5b828204905092915050565b7f496e73756666696369656e742062616c616e636520696e20636f6e7472616374600082015250565b6000610c0d602083610990565b9150610c1882610bd7565b602082019050919050565b60006020820190508181036000830152610c3c81610c00565b9050919050565b600081905092915050565b50565b6000610c5e600083610c43565b9150610c6982610c4e565b600082019050919050565b6000610c7f82610c51565b9150819050919050565b7f5472616e73666572206661696c65642e00000000000000000000000000000000600082015250565b6000610cbf601083610990565b9150610cca82610c89565b602082019050919050565b60006020820190508181036000830152610cee81610cb2565b9050919050565b7f546869732066756e6374696f6e206973207265737472696374656420746f207460008201527f68652062616e6b00000000000000000000000000000000000000000000000000602082015250565b6000610d51602783610990565b9150610d5c82610cf5565b604082019050919050565b60006020820190508181036000830152610d8081610d44565b9050919050565b7f5769746864726177207375636365737366756c00000000000000000000000000600082015250565b6000610dbd601383610990565b9150610dc882610d87565b602082019050919050565b60006020820190508181036000830152610dec81610db0565b9050919050565b7f46756e6420616d6f756e74206d7573742062652067726561746572207468616e60008201527f207a65726f000000000000000000000000000000000000000000000000000000602082015250565b6000610e4f602583610990565b9150610e5a82610df3565b604082019050919050565b60006020820190508181036000830152610e7e81610e42565b905091905056fea2646970667358221220b3439f8bfc9eca4d4c278d25131a26db89ac1501bc078f48c65f691854f2349964736f6c634300080d0033",
  "immutableReferences": {},
  "source": "// SPDX-License-Identifier: MIT\npragma solidity ^0.8.0;\n\ncontract Betting {\n    address payable public bank;\n    address payable public player;\n    uint256 public betAmount;\n    uint256 public odds; // Oranlar bir lekleme faktr ile saklyoruz\n    event BetPlaced(address indexed player, uint256 amount, uint256 odds);\n    event PayoutSuccess(address indexed player, uint256 payout);\n    event ErrorLog(string message);\n    event Funded(uint256 amount);\n\n\n    modifier onlyBank() {\n        require(msg.sender == bank, \"This function is restricted to the bank\");\n        _;\n    }\n\n    constructor() {\n        bank = payable(msg.sender);\n    }\n\n    function placeBet(uint256 _odds) public payable {\n        require(msg.value > 0, \"Bet amount must be greater than zero\");\n        player = payable(msg.sender);\n        betAmount = msg.value;\n        odds = _odds;\n        emit BetPlaced(player, betAmount, odds);\n    }\n\n    function win() public {\n        require(msg.sender == player, \"Only the player can call this function\");\n        uint256 payout = (betAmount * odds) / 100; // Oranlar 100 ile lekliyoruz\n        require(address(this).balance >= payout, \"Insufficient balance in contract\");\n        (bool success, ) = player.call{value: payout}(\"\");\n        require(success, \"Transfer failed.\");\n        emit PayoutSuccess(player, payout);\n        resetBet();\n    }\n\n    function fundContract() public payable onlyBank {\n        require(msg.value > 0, \"Fund amount must be greater than zero\");\n        emit Funded(msg.value);\n    }\n\n    function withdrawContract(uint256 amount) public onlyBank {\n        require(amount <= address(this).balance, \"Insufficient balance in contract\");\n        (bool success, ) = bank.call{value: amount}(\"\");\n        require(success, \"Transfer failed.\");\n        emit ErrorLog(\"Withdraw successful\");\n    }\n\n    function getContractBalance() public view returns (uint256) {\n        return address(this).balance;\n    }\n\n    function resetBet() internal {\n        betAmount = 0;\n        odds = 0;\n        player = payable(address(0));\n    }\n}\n",
  "sourcePath": "C:\\Users\\Alihan\\OneDrive\\\\Custom Project\\VarMsnChainProject\\VarMisinChain_Project\\contracts\\Betting.sol",
  "compiler": {
    "name": "solc",
    "version": "0.8.13+commit.abaa5c0e.Emscripten.clang"
  },
  "schemaVersion": "3.4.16",
  "updatedAt": "2024-06-03T15:28:59.201Z",
  "networkType": "ethereum",
  "devdoc": {
    "kind": "dev",
    "methods": {},
    "version": 1
  },
  "userdoc": {
    "kind": "user",
    "methods": {},
    "version": 1
  }
}